:020000040000FA
:100000000C9462000C948A000C948A000C948A0070
:100010000C948A000C948A000C948A000C948A0038
:100020000C948A000C948A000C948A000C948A0028
:100030000C948A000C948A000C948A000C948A0018
:100040000C94E0030C948A000C948A000C948A00AF
:100050000C948A000C948A000C948A000C948A00F8
:100060000C948A000C948A000000000024002700F1
:100070002A0000000000250028002B0000000000DE
:1000800023002600290004040404040404040202DA
:100090000202020203030303030301020408102007
:1000A0004080010204081020010204081020000012
:1000B0000008000201000003040700000000000027
:1000C0000000F20811241FBECFEFD8E0DEBFCDBF85
:1000D00011E0A0E0B1E0EEE6F5E102C005900D927E
:1000E000A630B107D9F722E0A6E0B1E001C01D9229
:1000F000AF3CB207E1F710E0C2E6D0E004C02197C0
:10010000FE010E94AF0AC136D107C9F70E942A0436
:100110000C94B50A0C9400008F929F92AF92BF92FC
:10012000CF92DF92EF92FF923091B002C090A40282
:10013000D090A502C60196958795282F832E912CE5
:10014000B12CA12C809398023F3720F530E050E08D
:1001500040E02150310941095109C501B4010E9413
:10016000980A2FEF30E040E050E00E94350A2F5F00
:100170003F4F4F4F5F4F2093990210929B02109276
:100180009C02FF90EF90DF90CF90BF90AF909F9038
:100190008F9008958093990288E2C816D10408F4DC
:1001A00046C084E9C81681E0D80608F042C0D6945B
:1001B000C794D694C7948C2DC82ED12CF12CE12C49
:1001C000A091B2022AE030E040E050E02C193D0955
:1001D0004E095F09B0E00E94540A2FEF30E040E082
:1001E00050E00E94350AC20ED31EE41EF51EC092D6
:1001F0009B02DD24EE24FF24A70196012150310942
:1002000041095109C501B4016F577109810991096B
:100210000E94980A20E830E040E050E00E94350A51
:100220002F5F3F4F4F4F5F4F20939C02AACF8AE032
:10023000C3CF84E6C1CF282F30E050E040E087FDF7
:100240000EC030E0A4EAB0E00E94890A2FE730E057
:1002500040E050E00E94350A2093B10208952058F2
:10026000310941095109AAE5B0E00E94540A2FE77B
:1002700030E040E050E00E94350A2B55EDCF83304E
:1002800081F028F4813099F08230A9F00895873008
:10029000A9F08830C9F08430B1F4809180008F7D5E
:1002A00003C0809180008F7780938000089584B58B
:1002B0008F7784BD089584B58F7DFBCF8091B0008A
:1002C0008F778093B00008958091B0008F7DF9CF33
:1002D000CF93DF93EEEAF0E08491EAE9F0E0D49185
:1002E000E6E8F0E0C491CC23A1F081110E943F0127
:1002F000EC2FF0E0EE0FFF1FE458FF4FA591B491F3
:10030000EC91ED2381E090E009F480E0DF91CF9162
:10031000089580E090E0FACF1F93CF93DF93282FCA
:1003200030E0F901E255FF4F8491F901E656FF4FA5
:10033000D491F901EA57FF4FC491CC23A9F0162FAD
:1003400081110E943F01EC2FF0E0EE0FFF1FEE58ED
:10035000FF4FA591B4918FB7F894EC91111108C09B
:10036000D095DE23DC938FBFDF91CF911F9108954D
:10037000DE2BF8CF2091CB023091CC022817390721
:1003800039F13093CA022093C9029093CC02809332
:10039000CB0260E08091CE022130310529F0232B81
:1003A00029F460E08091CD020E948C018091CB0203
:1003B0009091CC028130910529F461E08091CE02C8
:1003C0000C948C01892B21F461E08091CD02F8CF4F
:1003D00008958091C6029091C802992329F0109245
:1003E000C70260E00C948C0191E09093C70261E039
:1003F000F9CF8091C6029091C802992331F091E023
:100400009093C70261E00C948C011092C70260E0E7
:10041000FACFCF93DF9390E0FC01E656FF4F249193
:100420008A579F4FFC0184918823D1F090E0880F78
:10043000991FFC01E859FF4FA591B491FC01EE58BA
:10044000FF4FC591D49161110EC09FB7F8948C9164
:10045000E22FE0958E238C932881E223E8839FBFCF
:10046000DF91CF9108958FB7F894EC91E22BEC9344
:100470008FBFF6CF8E3008F08E50877080648093E7
:100480007C0080917A00806480937A0080917A0069
:1004900086FDFCCF809178009091790008953FB758
:1004A000F8948091070190910801A0910901B09101
:1004B0000A0126B5A89B05C02F3F19F00196A11D82
:1004C000B11D3FBFBA2FA92F982F8827BC01CD019E
:1004D000620F711D811D911D42E0660F771F881FFD
:1004E000991F4A95D1F70895282F30E050E040E059
:1004F0008F3770F430E0ACEDB0E00E94890A2EE74F
:1005000030E040E050E00E94350A622F862F0895C7
:100510002F57310941095109A3E2B0E00E94540A62
:1005200027E095958795779567952A95D1F7645239
:10053000EDCF4F925F926F927F928F929F92AF9288
:10054000BF92CF92DF92EF92FF921F93CF93DF93F0
:100550008093B2020E947402C82ED12CF12CE12C9F
:10056000A0EEBEEFA70196010E94620A412C512C19
:1005700032014A94A30192010E94350A245D3E4F44
:100580004F4F5F4F3093A5022093A4028090BA0290
:100590009090BB02B12CA12C2091BE023091BF02E1
:1005A00050E040E0281939094A095B09C701B60142
:1005B0000E94980AA30192010E94350A820E931E9E
:1005C000A41EB51E9092C5028092C4028090B8020B
:1005D0009090B902B12CA12C2091BC023091BD02A7
:1005E00050E040E0281939094A095B09C701B60102
:1005F0000E94980AA30192010E94350A820E931E5E
:10060000A41EB51E9092C3028092C2020E948C006A
:10061000C091B00220E0CF3738F52091B10230E030
:1006200050E040E02F5F310941095109A2E3B0E0F9
:100630000E94540A21E03FEF4FEF5FEF0E94350A1E
:10064000265F3F4F4F4F5F4F6C2F70E090E080E090
:100650006F577109810991090E94980A21E83FEFBB
:100660004FEF5FEF0E94350AC22FD0E0C0909E028C
:10067000D12CCC1ADD0A0D2C000CEE08FF0880905E
:10068000B702912CB12CA12C1091B30220919D02A4
:1006900030E02C1B3D0B032E000C440B550B2C198A
:1006A0003D094E095F09A091B202B0E00E94540AD0
:1006B000412C512C32014A94A30192010E94350A27
:1006C0002C0D3D1D4E1D5F1D33274427552728192E
:1006D00039094A095B09A12FB0E00E94540AA3011D
:1006E00092010E94350A820E931EA41EB51E8092AE
:1006F000B502812F0E947402282F30E02C1B3D0B85
:10070000032E000C440B550B2253310941095109AA
:10071000A82FB0E00E94540AA30192010E94350A5A
:100720002E5C3F4F4F4F5F4F2093B602DF91CF912A
:100730001F91FF90EF90DF90CF90BF90AF909F9070
:100740008F907F906F905F904F900895CF93DF933D
:10075000EC0188810E943A02937029813A816C8170
:1007600070E0A9012817390708F4AC018217930734
:1007700008F49C01421B530B6417750768F42B8126
:100780002F5F2B833D81321740F49A8389831B822C
:1007900081E0DF91CF9108951B8280E0FACF209114
:1007A0000001A0911B0130E0B0E00E94890A2FEF08
:1007B00030E040E050E00E94350A209301010895A6
:1007C0001F920F920FB60F9211242F933F938F9386
:1007D0009F93AF93BF9380910B0190910C01A091D7
:1007E0000D01B0910E013091060123E0230F2D374A
:1007F00058F50196A11DB11D2093060180930B01B0
:1008000090930C01A0930D01B0930E01809107010C
:1008100090910801A0910901B0910A010196A11DD2
:10082000B11D8093070190930801A0930901B09333
:100830000A01BF91AF919F918F913F912F910F909E
:100840000FBE0F901F90189526E8230F0296A11D4A
:10085000B11DD2CF789484B5826084BD84B58160A7
:1008600084BD85B5826085BD85B5816085BD80917B
:100870006E00816080936E001092810080918100F3
:1008800082608093810080918100816080938100EB
:10089000809180008160809380008091B1008460AD
:1008A0008093B1008091B00081608093B00080910E
:1008B0007A00846080937A0080917A0082608093CD
:1008C0007A0080917A00816080937A0080917A002A
:1008D000806880937A001092C1000E944F026B01E1
:1008E0007C01A8EE8A2EA3E09A2EA12CB12C0E94A6
:1008F0004F026C197D098E099F09683E734081057E
:100900009105A8F321E0821A9108A108B10838EEF8
:10091000C30E33E0D31EE11CF11C81149104A10429
:10092000B10429F781E88093800089E080938100F9
:1009300061E086E00E94090260E080E00E94090216
:1009400060E081E10E94090281E10E943A02BC015B
:10095000990F880B990B611571058105910511F0AF
:100960000E94160A61E081E10E9409028FE78093EC
:10097000260188E290E00E941F0A853431F48CE35E
:1009800090E00E941F0A8093260182E390E00E947B
:100990001F0AD82F80931D0188E291E00E94A603D0
:1009A0002091290130912A01AFEFB0E00E94890A1D
:1009B000CC24CA94E3E0DE2EE12CF12CA7019601B1
:1009C0000E94350AC22F20932401A22FB0E023ED0C
:1009D0003FEF4FEF5FEF0E94540A2FEF30E040E00F
:1009E00050E00E94350A25513F4F4F4F5F4F2093F3
:1009F00000018EE191E00E94A60320911F01309139
:100A00002001AFEFB0E00E94890AA70196010E9481
:100A1000350A20931B010E94CF038C2F0E9499025C
:100A2000809126010E941B01D093B0020E948C008D
:100A300060E089E00E948C0160E088E00E948C0107
:100A400081E08093C8020E94F90110920F01109278
:100A5000270110921C0110922501812C912C540128
:100A60008A94C1E0DEEB22242A94312C8FB7F894CB
:100A7000C0900B01D0900C01E0900D01F0900E01A0
:100A80008FBF80911A01882309F4AEC180911601AD
:100A900090911701A0911801B0911901A701960139
:100AA000281B390B4A0B5B0BDA01C901893C910504
:100AB000A105B10550F010921A0110921601109282
:100AC00017011092180110921901809190029091D3
:100AD0009102A0919202B0919302A7019601281B66
:100AE000390B4A0B5B0BDA01C9010B97A105B10564
:100AF00008F44AC0C0929002D0929102E092920211
:100B0000F092930288E291E00E94A6038823D9F034
:100B10002091290130912A01AFEFB0E00E94890AAB
:100B20002FEF33E040E050E00E94350A122F809111
:100B30002701882309F407C220932601822F0E94EF
:100B40001B01C09325018EE191E00E94A60388233A
:100B5000D9F020911F0130912001AFEFB0E00E9449
:100B6000890A2FEF33E040E050E00E94350A80917F
:100B70002701882309F408C220931D012093B002A5
:100B80000E948C00C0931C0180918C0290918D0278
:100B9000A0918E02B0918F02A7019601281B390BFC
:100BA0004A0B5B0BDA01C9010697A105B10508F4F0
:100BB000C4C2C0928C02D0928D02E0928E02F0925A
:100BC0008F028091A6029091A70201969093A702AE
:100BD0008093A6022091C0023091C10228173907E4
:100BE00020F41092A7021092A6028091A602909182
:100BF000A702892B09F069C0C090C402D090C50239
:100C00003FEFC31AD30AF12CE12C4090C20250905E
:100C1000C302712C612C4C145D046E047F048CF4AF
:100C2000C418D508E608F70841F00E94C709A701D3
:100C300096010E94350A6B017C014C0C5D1C6E1CF8
:100C40007F1C5092C1024092C0028091C4029091D8
:100C5000C5029C01220F331F280F391F2630310592
:100C600008F4A1C12A3C310508F09FC136952795AB
:100C700020939502A091B002AF3790F430E050E09D
:100C800040E02350310941095109B0E00E94540A63
:100C9000A50194010E94350A2D5F3F4F4F4F5F4FD2
:100CA000209396028091AC02853508F080C10E94A5
:100CB000C7092BEA30E040E050E00E94350A6B5A49
:100CC0007F4F8F4F9F4F6093AC02A091AC028091F9
:100CD00094028F5F8093940220919602821710F005
:100CE00010929402E0919402F0E0E85DFD4FA08341
:100CF0002223A1F0E8E2F2E060E070E0CB0130E016
:100D00004191640F711D811D911D3F5F2313F8CF29
:100D100030E050E040E00E94670AA22FA093A102B9
:100D2000C090B702D12CF12CE12C2091B60230E01A
:100D300050E040E02C193D094E095F09B0E00E94E7
:100D4000540AA50194010E94350A29013A014C0C6C
:100D50005D1C6E1C7F1C4092AE022091A20230915D
:100D6000A3022F5F3F4F3093A3022093A2028091F2
:100D7000A4029091A5022817390720F01092A3022F
:100D80001092A2029695879541E02091A20230919F
:100D9000A3028217930708F440E0842F8195909175
:100DA00097029F5F9093970220919902921710F0FB
:100DB00010929702E0919702F0E0EE56FE4F80838A
:100DC000E2E9F1E060E070E0CB01A22FB0E0AF011A
:100DD000425951404A175B070CF015C14191640F0D
:100DE000711D811D911DF3CF0E946801019709F0CB
:100DF00050C08091120190911301A0911401B09103
:100E000015010097A105B10549F4C0921201D092D5
:100E10001301E0921401F092150157CEA70196013B
:100E2000281B390B4A0B5B0BDA01C901853191058F
:100E3000A105B10508F449CE803233E09307A1053E
:100E4000B10588F48091110181113FCEC093110149
:100E500080910F01811139CE0E94E90190E080E07C
:100E60000E94BA0132CE80329340A105B10509F447
:100E70002CCE80911001811128CEC0931001809159
:100E80000F01882309F421CEC093270181E090E06F
:100E9000E7CF0E946801892B09F017CE109212014A
:100EA00010921301109214011092150180911101FA
:100EB000882309F40ACE1092110180910F019091BC
:100EC00010019923B1F1811107C00E94F90182E05C
:100ED00090E00E94BA011EC01092270190E080E0CD
:100EE0000E94BA0180911C01882341F060911D018C
:100EF00082E390E00E94270A10921C018091250154
:100F0000882341F0609126018CE390E00E94270A3B
:100F1000109225011092110110921001C0931A0134
:100F2000C0921601D0921701E0921801F0921901B7
:100F3000CCCD8C2780930F01882339F20E94E901E0
:100F400090E080E0C6CF20932401822F0E94990276
:100F5000173928F0D09300010E94CF03F4CDA12FC0
:100F6000B0E023ED3FEF4FEF5FEF0E94540A26E918
:100F700030E040E050E00E94350A25513F4F4F4F8E
:100F80005F4F20930001E8CFA091000130E0B0E076
:100F90000E94890AA50194010E94350A20931B0131
:100FA0000E94CF03F1CD23E063CE24E661CE8A3ADE
:100FB00018F50E94C70922E030E040E050E00E94AE
:100FC000350A613071058105910549F00E94C70914
:100FD00025E530E040E050E00E94350A74CE0E94E2
:100FE000C70926E530E040E050E00E94350A66552A
:100FF0007F4F8F4F9F4F67CE0E94C7092BEA30E08B
:1010000040E050E0E9CF30E050E040E00E94670A65
:10101000A22F2093A0022091B50230E050E040E0E2
:101020002C193D094E095F09B0E00E94540AA50140
:1010300094010E94350AC20ED31EE41EF51E2C2D0B
:10104000C092AF021091B1021123C9F0242D1F3FAD
:10105000B1F030E0A12FB0E00E94890AA50194010F
:101060000E94350A022FD101A11BB1092C2D30E0BD
:101070000E94A80AA50194010E94350A200FC09081
:101080009C02CC2049F180919A028F5F8C15D8F494
:1010900080939A02E0919A02F0E0E25DFE4F208395
:1010A000EEE2F1E060E070E0CB012C2D30E0AF012A
:1010B0004E525140421753074CF44191640F711D39
:1010C000811D911DF4CF10929A02E4CF2C2D30E0B7
:1010D00050E040E00E94670A8091A8029091A90226
:1010E00001969093A9028093A8024091AA02509180
:1010F000AB028417950730F01092A9021092A80253
:1011000020939F0220910101A0919F0230E0B0E066
:101110000E94890AA50194010E94350A122F032F0B
:10112000E22EF32E61E086E00E940902E114F10450
:1011300061F460E086E00E948C0120E030E0232B27
:1011400009F494CC0E9400008CCC4FEFE416F1041B
:1011500011F461E0EFCFE4EBF0E08491833031F102
:1011600048F48130C9F08230E1F0F0E8EF16F10484
:1011700084F7DFCF873031F1883061F18430A9F70F
:1011800080918000806280938000812F902F9093C7
:101190008B0080938A00D1CF84B5806884BD17BD51
:1011A000CCCF84B5806284BD18BDC7CF809180004C
:1011B000806880938000812F902F90938900809386
:1011C0008800BBCF8091B00080688093B0001093FE
:1011D000B300B3CF8091B00080628093B0001093D1
:1011E000B400ABCF0F931F93CF93DF93C8E2D1E04E
:1011F0001A8219821B821AE01D838FE0888302E025
:101200000C8360E00E9409028FE00E943A029A83F8
:101210008983CEE1D1E01A8219821B821D8380E18D
:1012200088830C8360E00E94090280E10E943A02F8
:101230009A838983E4E9F2E080E590E095A384A3B2
:1012400084E690E097A386A383E090E091A780A72F
:101250008AE090E093A782A781E0868F8FEF848F4A
:10126000858F878F81A382A313A281878287128EA5
:10127000138E178616868CE291E0918B808B158AEF
:10128000148A81E090E0978B868B84E68183828349
:10129000108296E9948395831382878380871682D0
:1012A000138A128AC9ECD2E01982188282E090E097
:1012B0009B838A8389E08C8388E08D8361E089E069
:1012C0000E94090261E08D810E94090260E08C8128
:1012D0000E948C0160E08D810E948C01E6ECF2E0BE
:1012E00010831282118261E08AE0DF91CF911F9119
:1012F0000F910C9409028F929F92AF92BF92CF925E
:10130000DF92EF92FF92CF93DF93EC0168817981B6
:101310008A819B81611571058105910521F464E243
:1013200079ED8BE597E02DE133EF41E050E00E944D
:10133000350A49015A019B01AC01A7EAB1E40E94B8
:10134000540A6B017C01ACEEB4EFA50194010E943C
:10135000620AC60ED71EE81EF91EF7FE06C081E01F
:10136000C81AD108E10880E8F80AC882D982EA825E
:10137000FB82C701B6019F77DF91CF91FF90EF907D
:10138000DF90CF90BF90AF909F908F9008958F92F5
:101390009F92AF92BF92CF92DF92EF92FF926091B5
:1013A0000201709103018091040190910501611582
:1013B00071058105910521F464E279ED8BE597E0F3
:1013C0002DE133EF41E050E00E94350A49015A0116
:1013D0009B01AC01A7EAB1E40E94540A6B017C01B5
:1013E000ACEEB4EFA50194010E94620AC60ED71EAE
:1013F000E81EF91EF7FE06C081E0C81AD108E10810
:1014000080E8F80AC0920201D0920301E092040140
:10141000F0920501C701B6019F77FF90EF90DF9032
:10142000CF90BF90AF909F908F90089560930201EE
:101430007093030180930401909305010895F99935
:10144000FECF92BD81BDF89A992780B50895262FC9
:10145000F999FECF1FBA92BD81BD20BD0FB6F89499
:10146000FA9AF99A0FBE01960895052E97FB1EF47D
:1014700000940E944C0A57FD07D00E94670A07FC9F
:1014800003D04EF40C944C0A50954095309521951C
:101490003F4F4F4F5F4F08959095809570956195A0
:1014A0007F4F8F4F9F4F08950E94890AA59F900DEF
:1014B000B49F900DA49F800D911D11240895B7FF36
:1014C0000C94540A0E94540A821B930B0895A1E2C3
:1014D0001A2EAA1BBB1BFD010DC0AA1FBB1FEE1FAE
:1014E000FF1FA217B307E407F50720F0A21BB30BF9
:1014F000E40BF50B661F771F881F991F1A9469F775
:1015000060957095809590959B01AC01BD01CF01D0
:101510000895A29FB001B39FC001A39F700D811DCC
:101520001124911DB29F700D811D1124911D0895EC
:10153000DB018F939F930E94540ABF91AF91A29FAA
:10154000800D911DA39F900DB29F900D11240895C1
:101550000E94890AB7FF0895821B930B0895EE0F2E
:10156000FF1F0590F491E02D0994F894FFCFFFFF41
:041570000100000076
:107E0000112484B714BE81FFF0D085E080938100F7
:107E100082E08093C00088E18093C10086E0809377
:107E2000C20080E18093C4008EE0C9D0259A86E02C
:107E300020E33CEF91E0309385002093840096BBD3
:107E4000B09BFECF1D9AA8958150A9F7CC24DD24C4
:107E500088248394B5E0AB2EA1E19A2EF3E0BF2EE7
:107E6000A2D0813461F49FD0082FAFD0023811F036
:107E7000013811F484E001C083E08DD089C08234E0
:107E800011F484E103C0853419F485E0A6D080C0E4
:107E9000853579F488D0E82EFF2485D0082F10E0AE
:107EA000102F00270E291F29000F111F8ED06801E7
:107EB0006FC0863521F484E090D080E0DECF843638
:107EC00009F040C070D06FD0082F6DD080E0C81688
:107ED00080E7D80618F4F601B7BEE895C0E0D1E017
:107EE00062D089930C17E1F7F0E0CF16F0E7DF06D8
:107EF00018F0F601B7BEE89568D007B600FCFDCFD4
:107F0000A601A0E0B1E02C9130E011968C91119780
:107F100090E0982F8827822B932B1296FA010C0160
:107F200087BEE89511244E5F5F4FF1E0A038BF0790
:107F300051F7F601A7BEE89507B600FCFDCF97BE46
:107F4000E89526C08437B1F42ED02DD0F82E2BD052
:107F50003CD0F601EF2C8F010F5F1F4F84911BD097
:107F6000EA94F801C1F70894C11CD11CFA94CF0C13
:107F7000D11C0EC0853739F428D08EE10CD085E9AC
:107F80000AD08FE07ACF813511F488E018D01DD067
:107F900080E101D065CF982F8091C00085FFFCCF94
:107FA0009093C60008958091C00087FFFCCF809118
:107FB000C00084FD01C0A8958091C6000895E0E648
:107FC000F0E098E1908380830895EDDF803219F02E
:107FD00088E0F5DFFFCF84E1DECF1F93182FE3DFCA
:107FE0001150E9F7F2DF1F91089580E0E8DFEE27F6
:047FF000FF270994CA
:027FFE00040479
:00000001FF
