:100000002BC04FC04EC04DC04CC04BC04AC049C0B1
:1000100048C047C046C051C344C043C042C041C0AD
:1000200040C000003A0037000000390036000000F0
:100030003B0038000101010101010101020202013E
:1000400002040810204080040201000000000004A7
:10005000030201000000FF0711241FBECFE5D2E01C
:10006000DEBFCDBF10E0A0E6B0E0EEE3F3E102C0FA
:1000700005900D92A636B107D9F722E0A6E6B0E0CA
:1000800001C01D92AB32B207E1F710E0CCE2D0E044
:1000900003C02197FE014BD9CB32D107D1F757D3FB
:1000A0004CC9AECF8F929F92AF92BF92CF92DF9208
:1000B000EF92FF9220911502C0900902D0900A029F
:1000C000C60196958795682F822E912CB12CA12C74
:1000D0008093FD012F3710F570E090E080E06150D3
:1000E000710981099109A5019401B9D82FEF30E078
:1000F00040E050E0CDD82F5F3F4F4F4F5F4F2093F0
:10010000FE011092000210920102FF90EF90DF902A
:10011000CF90BF90AF909F908F9008958093FE01F5
:1001200088E2C816D10408F444C084E9C81681E006
:10013000D80608F040C0D694C794D694C7948C2DA6
:10014000C82ED12CF12CE12C6091170270E090E0C8
:1001500080E02AE030E040E050E02C193D094E09F3
:100160005F097DD82FEF30E040E050E091D8C20E1B
:10017000D31EE41EF51EC0920002DD24EE24FF24EF
:10018000C701B6016150710981099109A501940166
:100190002F5731094109510962D820E830E040E089
:1001A00050E076D82F5F3F4F4F4F5F4F20930102B3
:1001B000ACCF8AE0C5CF84E6C3CF282F682F70E08C
:1001C00090E080E027FD0DC024EA30E040E050E000
:1001D00046D82FE730E040E050E05AD8209316028E
:1001E000089560587109810991092AE530E040E0DD
:1001F00050E035D82FE730E040E050E049D82B55AB
:10020000EDCF8230A1F018F4813069F00895833089
:1002100019F0843029F008958FB58F778FBD089538
:100220008FB58F7DFBCF80B78F7780BF089580B764
:100230008F7DFBCF1F93CF93DF93E0E5F0E09491A8
:10024000E5E4F0E0D491EAE3F0E0C491CC23B1F02E
:10025000182F992311F0892FD4DFEC2FF0E0EE0F47
:10026000FF1FE25DFF4FA591B4918FB7F894EC9119
:10027000111108C0D095DE23DC938FBFDF91CF91A1
:100280001F910895DE2BF8CFCF93DF9390E0FC0110
:10029000E15CFF4F24918C5C9F4FFC01849188238B
:1002A000D1F090E0880F991FFC01EE5DFF4FA59102
:1002B000B491FC01E25DFF4FC591D49161110EC074
:1002C0009FB7F8948C91E22FE0958E238C93288130
:1002D000E223E8839FBFDF91CF9108958FB7F89411
:1002E000EC91E22BEC938FBFF6CF8E3008F08E505E
:1002F00023B1982F990F990F90722F7D922B93B95C
:10030000877087B9369A3699FECF84B195B1089532
:100310003FB7F8948091670090916800A0916900C0
:10032000B0916A0022B708B600FE05C02F3F19F051
:100330000196A11DB11D3FBFBA2FA92F982F882765
:10034000BC01CD01620F711D811D911D43E0660F3F
:10035000771F881F991F4A95D1F70895282F682F76
:1003600070E090E080E02F3768F42CED30E040E062
:1003700050E075D72EE730E040E050E089D7622F9B
:10038000862F08956F5771098109910923E230E0A2
:1003900040E050E064D727E095958795779567957D
:1003A0002A95D1F76452ECCF4F925F926F927F9271
:1003B0008F929F92AF92BF92CF92DF92EF92FF9275
:1003C0001F93CF93DF9380931702C8DFC82ED12CE1
:1003D000F12CE12C20EE3EEF4FEF5FEFC701B601AD
:1003E0003ED7412C512C32014A94A301920150D79F
:1003F000245D3E4F4F4F5F4F30930A022093090216
:1004000080901F0290902002B12CA12C60912302B9
:100410007091240290E080E0681979098A099B09AB
:10042000A70196011CD7A301920132D7820E931E19
:10043000A41EB51E90922A028092290280901D026D
:1004400090901E02B12CA12C609121027091220289
:1004500090E080E0681979098A099B09A701960153
:10046000FED6A301920114D7820E931EA41EB51EC0
:10047000909228028092270215DEC091150220E09A
:10048000CF3738F56091160270E090E080E06F5F42
:1004900071098109910922E330E040E050E0DFD6A4
:1004A00021E03FEF4FEF5FEFF3D6CA01B901665F7E
:1004B0007F4F8F4F9F4F2C2F30E050E040E02F5761
:1004C000310941095109CBD621E83FEF4FEF5FEFEA
:1004D000DFD6C22FD0E0C0900302D12CCC1ADD0AA7
:1004E0000D2C000CEE08FF0880901C02912CB12C02
:1004F000A12C109118026091020270E06C1B7D0B20
:10050000072E000C880B990B6C197D098E099F0929
:100510002091170230E050E040E0A1D6412C512C50
:1005200032014A94A3019201B3D6CA01B9016C0DFC
:100530007D1D8E1D9F1D77278827992768197909AA
:100540008A099B09212F30E050E040E088D6A301C2
:1005500092019ED6820E931EA41EB51E80921A0290
:10056000812FFCDE282F682F70E06C1B7D0B072E7F
:10057000000C880B990B625371098109910930E0D5
:1005800050E040E06CD6A301920182D62E5C3F4F32
:100590004F4F5F4F20931B02DF91CF911F91FF9030
:1005A000EF90DF90CF90BF90AF909F908F907F9013
:1005B0006F905F904F900895CF93DF93EC01888107
:1005C00094DE937029813A816C8170E0A90128172B
:1005D000390708F4AC018217930708F49C01421B09
:1005E000530B6417750768F42B812F5F2B833D81B4
:1005F000321740F49A8389831B8281E0DF91CF9187
:1006000008951B8280E0FACFC298C19A0895809124
:100610006B00882329F081E080937C00C198C29A06
:10062000089580916B00811102C0C098EDCF0895AC
:100630006091600070E090E080E02091700030E018
:1006400050E040E00CD62FEF30E040E050E020D604
:10065000209361000895C09A88B3897F88BB08956C
:1006600080916B0091E0892780936B00882311F0C3
:10067000C098CACFF0CF80916B00811101C0EBCF41
:1006800010927C0080917100882339F06091720093
:1006900082E390E0D6D51092710080917A00882391
:1006A00039F060917B008CE390E0CBD510927A001A
:1006B00081E080936B00C098A7CF1F920F920FB676
:1006C0000F9211242F933F938F939F93AF93BF93D8
:1006D00080916C0090916D00A0916E00B0916F00C0
:1006E0003091660026E0230F2D3758F50296A11DA4
:1006F000B11D2093660080936C0090936D00A093D1
:100700006E00B0936F008091670090916800A09197
:100710006900B0916A000196A11DB11D8093670028
:1007200090936800A0936900B0936A00BF91AF9165
:100730009F918F913F912F910F900FBE0F901F901F
:10074000189529E8230F0396A11DB11DD2CF7894E7
:1007500080B7826080BF80B7816080BF83B78260CE
:1007600083BF83B7816083BF89B7816089BF1EBCA7
:100770008EB582608EBD8EB581608EBD8FB5816075
:100780008FBD329A319A3098379AC2DD4B015C01A5
:10079000F8EECF2EF3E0DF2EE12CF12CB9DD681955
:1007A00079098A099B09683E734081059105B0F378
:1007B00021E0C21AD108E108F10838EE830E33E0D7
:1007C000931EA11CB11CC114D104E104F10431F742
:1007D00081E88FBD89E08EBD61E086E055DD60E097
:1007E00084E052DD60E083E04FDD83E07EDDBC012C
:1007F000990F880B990B611571058105910509F019
:100800000FD561E083E040DD87B3876087BB8FE76A
:1008100080937B0088E290E00CD5853429F48CE34A
:1008200090E007D580937B0082E390E002D5C82F4B
:10083000809372008DE790E0BFDE60917E00709142
:100840007F0090E080E02FEF30E040E050E007D5FF
:1008500088248A94E3E09E2EA12CB12CA50194015A
:1008600017D5690120937900CA01B9017727882734
:10087000992723ED3FEF4FEF5FEFF1D42FEF30E0FB
:1008800040E050E005D525513F4F4F4F5F4F20933B
:10089000600083E790E090DE6091740070917500D5
:1008A00090E080E02FEF30E040E050E0D8D4A501A8
:1008B0009401EED420937000BBDE8C2D75DD809109
:1008C0007B007BDCC0931502EDDB81E193E090932C
:1008D000F2018093F10180E393E09093F40180931F
:1008E000F30187E093E09093F6018093F5018BE3A9
:1008F00093E09093F8018093F70181E08093EA01FF
:1009000010926B0010927C001092710010927A008D
:1009100088B3897F88BBC09AC1E00FEF10E060E028
:10092000262E60E0362E8FB7F89480906C00909061
:100930006D00A0906E00B0906F008FBF8FB7F894DD
:10094000C0906C00D0906D00E0906E00F0906F0051
:100950008FBF2091E90130E0F901E65BFF4F849100
:10096000F901E15CFF4F6490F901EC5CFF4F74907A
:10097000772071F0811145DCE72DF0E0EE0FFF1FCD
:10098000E85DFF4FA591B491EC916E2281E009F4EE
:1009900080E02091ED013091EE0181709091EA01AB
:1009A0008913CFC12115310509F094C1D092EE0110
:1009B000C092ED018091E5019091E601A091E701DF
:1009C000B091E801A5019401281B390B4A0B5B0B80
:1009D000DA01C9010B97A105B10508F44CC080925A
:1009E000E5019092E601A092E701B092E8018DE75F
:1009F00090E0E2DD8823F1F060917E0070917F004D
:100A000090E080E02FEF30E040E050E028D42FEF7E
:100A100033E040E050E03CD469017A01D22F80916C
:100A20007C00882309F4B0C120937B00822FC5DBB2
:100A3000C0937A0083E790E0BFDD8823E1F0609106
:100A400074007091750090E080E02FEF30E040E09E
:100A500050E005D42FEF33E040E050E019D480910E
:100A60007C00882309F4B1C1209372002093150201
:100A700019DBC09371008091E1019091E201A09196
:100A8000E301B091E401A5019401281B390B4A0B45
:100A90005B0BDA01C9010697A105B10508F478C21C
:100AA0008092E1019092E201A092E301B092E40110
:100AB00080910B0290910C02019690930C0280930E
:100AC0000B0220912502309126022817390720F4C5
:100AD00010920C0210920B0280910B0290910C026A
:100AE000892B09F068C0C0902902D0902A023FEFFC
:100AF000C31AD30AF12CE12C80902702909028028F
:100B0000B12CA12C8C149D04AE04BF047CF4C81835
:100B1000D908EA08FB0831F035D3A7019601B8D30C
:100B20006B017C018C0C9D1CAE1CBF1C909226029C
:100B3000809225028091290290912A0263E070E060
:100B4000E5D38630910508F452C18A3C910508F03E
:100B500050C1969587958093FA01209115022F3701
:100B600008F049C190E0B0E0A0E0BC01CD016350C5
:100B700071098109910930E050E040E070D32FEF16
:100B800030E040E050E084D32D5F3F4F4F4F5F4F48
:100B90002093FB0180911102853508F02FC1F2D21C
:100BA0002BEA30E040E050E073D36B5A7F4F8F4F19
:100BB0009F4F60931102209111028091F9018F5F84
:100BC0008093F9013091FB01831710F01092F90125
:100BD000E091F901F0E0E358FE4F2083332399F0D0
:100BE000EDE7F1E060E070E0CB0120E04191640FBF
:100BF000711D811D911D2F5F3213F8CF232F30E01F
:100C000050E040E061D32093060280901C02912CBA
:100C1000B12CA12C60911B0270E090E080E068197B
:100C200079098A099B0930E050E040E018D32FEFA2
:100C300030E040E050E02CD369017A01C80CD91CA7
:100C4000EA1CFB1CC092130220910702309108029B
:100C50002F5F3F4F309308022093070280910902D3
:100C600090910A022817390720F01092080210927A
:100C700007029695879541E020910702309108027E
:100C80008217930708F440E041958091FC018F5F43
:100C90008093FC012091FE01821710F01092FC015C
:100CA000E091FC01F0E0E951FF4F4083E7EEF0E016
:100CB00060E070E0CB01A22FB0E0AF01475E504092
:100CC0004A175B070CF0BFC03191630F711D811D86
:100CD000911DF3CFC601821B930B8B30910508F455
:100CE00069CE8032934090F48091EF01811162CE01
:100CF000E091F101F091F201309709F00995D0925D
:100D0000EC01C092EB01C093EF0154CE8091EB0156
:100D10009091EC01C81AD90A81E2C81683E0D8067E
:100D200008F448CE8091F001811144CEC093F001C7
:100D3000E091F501F091F601309709F43BCE099569
:100D400039CE232B21F01092EE011092ED0180910B
:100D5000EF01882309F42ECE8091F00181110AC0A1
:100D6000E091F301F091F401309709F009951092A8
:100D7000EF0120CEE091F701F091F801309709F0F2
:100D800009951092F001F3CF20937900822F0CDBAC
:100D9000D73928F08EEB809360004ADC4BCEC70138
:100DA000B60177278827992723ED3FEF4FEF5FEFB5
:100DB00056D226E930E040E050E06AD225513F4F5C
:100DC0004F4F5F4F20936000E8CF6091600070E06C
:100DD00090E080E033274427552741D22FEF30E0C1
:100DE00040E050E055D22093700022DC44CE83E0F6
:100DF000B2CE84E6B0CE8093FB01CCCE8A3AE8F442
:100E0000C1D122E030E040E050E042D261307105D3
:100E10008105910539F0B6D125E530E040E050E09C
:100E200037D2C7CEAFD126E530E040E050E030D237
:100E300066557F4F8F4F9F4FBCCEA4D12BEA30E039
:100E400040E050E0EDCF30E050E040E03DD2209374
:100E5000050260911A0270E090E080E0681979095B
:100E60008A099B09332744275527F9D1412C512C56
:100E700032014A94A30192010BD2820E931EA41E4A
:100E8000B51E282D80921402D0911602DD2311F197
:100E90002C2DDF3FF9F0C701B60177278827992766
:100EA0002D2F30E050E040E0DAD1A3019201F0D1E3
:100EB000F22EB8016D1B7109072E000C880B990BDF
:100EC000A5019401332744275527C9D1A3019201D5
:100ED000DFD12F0D30910102332341F18091FF01C9
:100EE0008F5F8317D8F48093FF01E091FF01F0E05A
:100EF000ED57FF4F2083E3E8F0E060E070E0CB01C6
:100F0000A32FB0E0AF01435850404A175B074CF4A1
:100F10002191620F711D811D911DF4CF1092FF016F
:100F2000E4CF232F30E050E040E0CED180910D029D
:100F300090910E02019690930E0280930D024091C3
:100F40000F02509110028417950730F010920E0294
:100F500010920D02209304026091610070E090E015
:100F600080E02091040230E050E040E078D12FEFA3
:100F700030E040E050E08CD1D22EC32EE22EF32E92
:100F800061E086E081D9E114F10441F480E052D9B6
:100F90002114310409F4C7CC33D8BECC4FEFE4168A
:100FA000F10411F481E0F3CFE0E5F0E084918230C8
:100FB000C9F038F4813089F0F0E8EF16F10494F7C5
:100FC000E5CF8330A1F08430B9F78FB580628FBD53
:100FD0008D2D9C2D99BD88BDDBCF80B7806880BFEB
:100FE000D6BED6CF80B7806280BFDCBED1CF8FB5F2
:100FF00080688FBD8D2D9C2D9BBD8ABDC9CFFF9272
:101000000F931F93CF93DF93CDE7D0E01A8219821D
:101010001B828AE0F82EFD8211E0188302E00C8327
:1010200060E081E031D981E060D99A838983C3E7A8
:10103000D0E01A8219821B82FD8208830C8360E053
:1010400082E022D982E051D99A838983E9EFF1E0E5
:1010500080E590E095A384A384E690E097A386A31F
:1010600083E090E091A780A78AE090E093A782A711
:10107000168F8FEF848F858F878F81A382A313A212
:1010800081878287128E138E178616868CE291E0F6
:10109000918B808B158A148A81E090E0978B868BE8
:1010A00084E681838283108296E9948395831382F8
:1010B000878380871682138A128AE9EEF1E084E042
:1010C0008083138212821582148216821782118302
:1010D0001186108613861286158614861786168644
:1010E00060E0DF91CF911F910F91FF90CDC88F925B
:1010F0009F92AF92BF92CF92DF92EF92FF92CF93E7
:10110000DF93EC01688179818A819B81611571058A
:101110008105910521F464E279ED8BE597E02DE1FD
:1011200033EF41E050E0B4D049015A0127EA31E4FD
:1011300040E050E094D06B017C012CEE34EF4FEF97
:101140005FEFC501B4018BD0C60ED71EE81EF91E95
:10115000F7FE06C081E0C81AD108E10880E8F80A65
:10116000C882D982EA82FB82C701B6019F77DF91EC
:10117000CF91FF90EF90DF90CF90BF90AF909F9076
:101180008F9008958F929F92AF92BF92CF92DF92ED
:10119000EF92FF9260916200709163008091640011
:1011A00090916500611571058105910521F464E256
:1011B00079ED8BE597E02DE133EF41E050E068D029
:1011C00049015A0127EA31E440E050E048D06B0180
:1011D0007C012CEE34EF4FEF5FEFC501B4013FD03F
:1011E000C60ED71EE81EF91EF7FE06C081E0C81A1B
:1011F000D108E10880E8F80AC0926200D09263004A
:10120000E0926400F0926500C701B6019F77FF90FD
:10121000EF90DF90CF90BF90AF909F908F90089508
:101220006093620070936300809364009093650004
:101230000895E199FECF9FBB8EBBE09A99278DB3AD
:101240000895262FE199FECF1CBA9FBB8EBB2DBB04
:101250000FB6F894E29AE19A0FBE01960895EE2730
:10126000FF27AA27BB2708C0A20FB31FE41FF51F43
:10127000220F331F441F551F9695879577956795C5
:1012800098F37040A9F7009799F7BD01CF01089531
:10129000052E97FB16F400940FD057FD05D014D0FF
:1012A00007FC02D046F408C0509540953095219532
:1012B0003F4F4F4F5F4F0895909580957095619582
:1012C0007F4F8F4F9F4F0895A1E21A2EAA1BBB1B81
:1012D000FD010DC0AA1FBB1FEE1FFF1FA217B30702
:1012E000E407F50720F0A21BB30BE40BF50B661F18
:1012F000771F881F991F1A9469F7609570958095DC
:1013000090959B01AC01BD01CF01089500245527A4
:1013100004C0080E591F880F991F009729F0769571
:101320006795B8F37105B9F7802D952F0895EE0FE5
:0E133000FF1F0590F491E02D0994F894FFCF73
:06133E00FFFF01000000AA
:00000001FF
